:02000004080AE8
:1000000000000A0888130A0800000600060005011F
:0800100004029A080000000040
:0400180070110A0851
:10001C0009480A4908B5884205D0094A824202D0EB
:10002C00121A00F0EBFF0748074A0021121A00F0E1
:10003C00F3FF064808BD00BF00000020F4120A08B8
:10004C006C0000206C000020ED050020ED05002068
:10005C0070B500F0F3FB0025054E064CA41BA4085C
:10006C00A54200D170BD56F8043B98470135F7E71F
:10007C00CC120A08E8120A0800F02AB808B500F0F9
:10008C004BF8BDE8084000F091BB00F025BA00F039
:10009C002BBA0078B0FA80F0400970470123037046
:1000AC0070470000094908B500F0CFFA014640B18D
:1000BC000121032000F01BFF41F2883000F036FBD9
:1000CC000021032000F013FF002008BD84110A0852
:1000DC0008B500210A2000F0F9FE0121032000F0F0
:1000EC00F5FE0021032000F002FF00230222054947
:1000FC00054800F0D9F9BDE80840044A0449054810
:10010C0000F0E4BB700000208A110A0884110A0870
:10011C00B1000A08AD080A081FB50A2000F000FF5C
:10012C00144C206000F062F8134B144A18602368DA
:10013C00136040F2DB52934216DC114C114A2368D7
:10014C00C01A904200D87BB90F49684600F050FAAB
:10015C006846FFF7A7FF684600F000FA236803F52E
:10016C00DB1303F5BA53236041F2883000F0DEFA5A
:10017C0004B010BD740000206C0000207000002042
:10018C007800002040771B0084110A0808B5024B48
:10019C001B685B68019308BDB001060808B5024BEB
:1001AC001B689B68019308BDB001060808B5024B9B
:1001BC001B68DB68019308BDB001060808B5024B4B
:1001CC001B681B69019308BDB001060808B5024BFA
:1001DC001B681B6B019308BDB001060808B5024BE8
:1001EC001B685B68019308BD9C01060808B5024BAF
:1001FC001B685B69019308BD9C01060808B5024B9E
:10020C001B685B6C019308BDD001060808B5024B56
:10021C001B689B6C019308BDD001060808B5024B06
:10022C001B689B69019308BDC401060808B5024B05
:10023C001B685B6A019308BDC401060808B5024B34
:10024C001B689B6A019308BDC401060808B5024BE4
:10025C001B68DB6A019308BDC401060808B5024B94
:10026C001B681B6B019308BDC401060808B5024B43
:10027C001B685B6B019308BDC401060808B5024BF3
:10028C001B689B6B019308BDC401060808B5024BA3
:10029C001B681B6C019308BDC401060808B5024B12
:1002AC001B681B6E019308BDAC01060808B5024B18
:1002BC001B685B6E019308BDAC01060808B5024BC8
:1002CC001B689B6E019308BDAC01060808B5024B78
:1002DC001B68DB6E019308BDAC01060808B5024B28
:1002EC001B681B6F019308BDAC01060808B5024BD7
:1002FC001B685B6F019308BDAC01060808B5034B86
:10030C001B68D3F88030019308BD0000AC010608CF
:10031C0008B5024B1B68DB69019308BDB4010608E4
:10032C0008B5024B1B681B6A019308BDB401060893
:10033C0008B5024B1B681B68019308BDD801060861
:10034C0008B5024B1B681B69019308BDD801060850
:10035C0008B5024B1B685B69019308BDD801060800
:10036C0008B5024B1B689B69019308BDD8010608B0
:10037C0008B5024B1B68DB69019308BDD801060860
:10038C0008B5024B1B681B6A019308BDD80106080F
:10039C0008B5024B1B689B6C019308BDC001060895
:1003AC0008B5024B1B685B68019308BDA4010608E5
:1003BC0008B5024B1B685B69019308BDA4010608D4
:1003CC0008B5034B1B68D3F89030019308BD0000AF
:1003DC00A401060808B5034B1B68D3F89C300193A5
:1003EC0008BD0000A401060808B5024B1B685B6839
:1003FC00019308BDC801060808B5024B1B689B6831
:10040C00019308BDC801060808B5024B1B68DB68E0
:10041C00019308BDC801060808B5024B1B681B698F
:10042C00019308BDC801060808B5024B1B685B693F
:10043C00019308BDC801060808B5024B1B689B69EF
:10044C00019308BDC801060808B5024B1B68DB699F
:10045C00019308BDC801060808B5024B1B681B6A4E
:10046C00019308BDC801060808B5024B1B681B6B3D
:10047C00019308BDC801060808B5024B1B685B6BED
:10048C00019308BDC801060808B5024B1B681B6C1C
:10049C00019308BDC801060808B5024B1B685B6CCC
:1004AC00019308BDC801060808B5024B1B681B6800
:1004BC00019308BDCC01060808B5024B1B685B68AC
:1004CC00019308BDCC01060808B5024B1B68DB6B19
:1004DC00019308BDCC01060808B5024B1B681B68CC
:1004EC00019308BDA001060808B5024B1B685B68A8
:1004FC00019308BDA001060808B5024B1B689B6858
:10050C00019308BDA001060808B5024B1B685B6C83
:10051C00019308BDA001060870B5002604460D46DF
:10052C0040F8086FFFF76AFE28462570FFF7F0FECB
:10053C002046666070BD000002220020044B1A6049
:10054C00044B054A1860988098719A60FFF728BF91
:10055C00880000207C0000200000FFFF10B504463E
:10056C000068FFF7C1FF204610BD10B504460068B7
:10057C0008B1FFF7B9FF0023C4E90133236010BDB4
:10058C0038B504460D4600680131FFF7B5FF10B1D0
:10059C00C4E90005012038BD10B50368044623B139
:1005AC0043688B4201D3012010BD2046FFF7E8FFC2
:1005BC000028F9D0A368002BF5D122681370F2E75C
:1005CC0070B50E46114604461546FFF7E5FF20B9F7
:1005DC002046FFF7CAFF204670BD2A4631462068E8
:1005EC00A56000F00BFD00212268A368D154F2E74E
:1005FC0038B5002304460D46C0E90033836003730D
:10060C0039B1084600F03EFD294602462046FFF768
:10061C00D7FF204638BD884210B50B46044604D09F
:10062C00096821B19A68FFF7CBFF204610BDFFF790
:10063C009CFFFAE7002310B50446C0E90033836041
:10064C000373FFF7E8FF204610BD08B582683AB97E
:10065C0021B10878B0FA80F0400900E0012008BD13
:10066C00006809B90078F5E700F002FDF2E7F8B58B
:10067C0006460D4600248F18BD420CD03368304618
:10068C009B6815F8011B9847031E01DB1C44F3E71C
:10069C00002C08BF1C462046F8BD70B505460C461C
:1006AC00084649B100F0EEFC2B680246214628466C
:1006BC00BDE87040DB68184770BD03689B6818473D
:1006CC000023012A98BF0A2230B58BB00C468DF856
:1006DC00243009A92546B4FBF2F404FB1253DBB217
:1006EC00092B94BF30333733DBB2AA4201F8013DFA
:1006FC00F0D9FFF7D2FF0BB030BD002340681A468B
:10070C001946FFF791BE0000014B024A1A60704770
:10071C008C00002093110A08024B1A68024B1A60D5
:10072C00704700BF00000020900000200021FFF760
:10073C003FBE00000022014B9A60704794000020DD
:10074C00014B1860704700BF0400002008B5134B24
:10075C0043B100F097F903681B699847002801DD45
:10076C00AFF300800E4B43B100F03CFA03681B69F9
:10077C009847002801DDAFF300800A4B0BB1AFF3B3
:10078C000080094B43B100F0B7F903681B69984727
:10079C00002801DDAFF3008008BD00BF00000000A1
:1007AC0000000000000000000000000008B5FFF78A
:1007BC00CDFFFFF71BFD014B186008BD2005002085
:1007CC000548064A08B5121A054900F017FC054BF6
:1007DC00054A1A6008BD00BF0040024004400240B8
:1007EC00F0120A08004002401E1C279A002307B58D
:1007FC001A466FF077010093FFF7ECFD03B05DF83C
:10080C0004FB000007B543880A2B08D0502B0BD1F2
:10081C00094B1B684BB103B05DF804EB1847FFF7AD
:10082C00E5FF03B05DF804FB00231A466FF0770177
:10083C000093FFF7CFFDF4E7A8000020002110B5CE
:10084C001148FFF761FE114B1A68114B9A420CBF0D
:10085C00012200220F4B1A7001D0FFF7B1FFFFF7F6
:10086C00BDFC044600F0E0FB0B4B13B12046AFF38C
:10087C00008000210848FFF727FEBDE8104000214A
:10088C000648FFF79DBD00BF4D070A080040024017
:10089C001E1C279AA40000200000000011080A0862
:1008AC0010B588B004466846FFF7A2FE694604A856
:1008BC00FFF7C0FE04A8A047044604A8FFF74EFEAD
:1008CC006846FFF74BFE204608B010BD1FB500234D
:1008DC001024CDE90201019269461A461846ADF87A
:1008EC000230ADF80040FFF7E7FD04B010BD7047D3
:1008FC0010B50446182100F077FB204610BDF8B562
:10090C000E46002400F10807051D17F8011D0A22E8
:10091C003046FFF7D5FEAF42044401D12046F8BD66
:10092C00002CF2D02E213046FFF7C7FE0444ECE732
:10093C0010B50446044B1122002140F8043B00F092
:10094C006BFB204610BD00BFBC110A080346074ACA
:10095C0010B543F8042B01F1100251F8044B9142ED
:10096C0043F8044BF9D10A781A7010BDBC110A086F
:10097C00024AC0E90021042202757047BC110A0822
:10098C0010B59DF8084044EA0324042344EA0244C9
:10099C0044EA01644460037510BD000037B5044D92
:1009AC0005609DF818500095FFF7EAFF03B030BDC5
:1009BC00BC110A08417470477047704708B5002194
:1009CC00007CFFF7CDFC40EAE07008BD08B50121C2
:1009DC00007CFFF7C5FC40EAE07008BD08B5007C60
:1009EC00FFF7B6FC20EAE07008BD08B5007CFFF705
:1009FC00A7FC20EAE07008BD38B50446007C0D4623
:100A0C00FFF7A6FC002801DC607C28B12946207C7D
:100A1C00FFF7AEFC20EAE07038BD007CFFF7B0BCFD
:100A2C0010B50446142100F0DFFA204610BD7047C3
:100A3C0010B54FF47A73044608460021C4E901133B
:100A4C00044B20742360012311466374FFF770FC80
:100A5C00204610BDD0110A0810B5044614220021FE
:100A6C0000F0DAFA054B20466360054BE36040F278
:100A7C00011323818123238210BD00BFDC000020E1
:100A8C00DD01002030B50E4D87B001A8FFF7E4FF63
:100A9C002978BFF35B8F11F001040ED12846FFF7C4
:100AAC00F8FA50B1214601AA0648FFF7C1FF2846C3
:100ABC00FFF7F4FA044800F09BFA024807B030BD87
:100ACC00AC000020B4000020C5090A0810B504468B
:100ADC001422002100F0A0FA054B20466360054B60
:100AEC00E36040F2011323818123238210BD00BFF8
:100AFC005E0200205F03002010B50E4C86B001A8EA
:100B0C00FFF7E4FF2378BFF35B8FDB070ED420469F
:100B1C00FFF7BFFA50B1012101AA0748FFF788FF80
:100B2C002046FFF7BBFA054800F062FA024806B00F
:100B3C0010BD00BFB0000020C80000203B0A0A080E
:100B4C00704741747047704708B5007CFFF79EFBF7
:100B5C0020EAE07008BD08B5007CFFF76FFB20EAC7
:100B6C00E07008BD08B5007CFFF778FB40EAE07048
:100B7C0008BD08B5007CFFF769FB40EAE07008BDD2
:100B8C00007CFFF773BB70B5467C04460D462EB156
:100B9C002946207CBDE87040FFF748BB007CFFF77E
:100BAC0075FB0028F4DC304670BD10B504461421EA
:100BBC0000F01AFA204610BD4FF0000C10B5044698
:100BCC00084611464FF47A72C4E901C2044A2074F3
:100BDC002260012262741A46FFF720FB204610BDEA
:100BEC0000120A0838B50C4D2978BFF35B8F11F051
:100BFC0001040FD12846FFF74CFA58B12146074B98
:100C0C00074A0848FFF7D8FF2846FFF747FA064877
:100C1C0000F0EEF9034838BDE00300206804002022
:100C2C00E4030020EC040020530B0A087047F8B5CD
:100C3C00064615460C468F18BC4206D03368304623
:100C4C009B6814F8011B9847F6E72846F8BD00226C
:100C5C00007CFFF723BB0021007CFFF727BB0021A2
:100C6C00007CFFF72BBB0021007CFFF72FBB002182
:100C7C00007CFFF733BB10B50446142100F0B4F927
:100C8C00204610BD10B54FF47A7304460846002177
:100C9C00C4E90113034B114623602074FFF72EFBAC
:100CAC00204610BD30120A08002240681146FFF79A
:100CBC00B3BBF0B5154689B011220E46044600218F
:100CCC0003A800F0A9F9284600F0DCF9002781B24E
:100CDC0073682846009703AAFFF75AFB30B13946D0
:100CEC002046FFF745FE204609B0F0BD204603A97B
:100CFC00FFF72CFEF7E7002240681146FFF7ACBB6C
:100D0C00002240681146FFF7B7BB00224068FFF78E
:100D1C00ABBB0022406881F00101FFF795BB0023BB
:100D2C0040681A461946FFF787BB002240681146F7
:100D3C00FFF762BB002202214068FFF765BB00236E
:100D4C0040681A46FFF750BB0422024B5A60024A15
:100D5C001A6070470005002058120A0800234068EA
:100D6C001A46FFF741BB002202214068FFF74CBB3B
:100D7C00002240681146FFF73FBB00224068114635
:100D8C00FFF74ABB002340681A461946FFF74CBBD5
:100D9C00002340681A461946FFF74EBB00214068F5
:100DAC00FFF772BB00214068FFF776BB002240685A
:100DBC0081F00101FFF748BB00224068FFF754BBEC
:100DCC00002240681146FFF757BB002240681146CD
:100DDC00FFF742BB70B515468EB0044608A8FFF766
:100DEC00A7FD1122002103A800F016F900262846C1
:100DFC0000F048F90A4B009681B25B68284603AABA
:100E0C00FFF7C6FA30B131462046FFF7B1FD204658
:100E1C000EB070BD204603A9FFF798FDF7E700BFA1
:100E2C0000050020024B034A1A6000225A607047EA
:100E3C000805002094120A08024B986808B1FFF7C5
:100E4C00E5B9704714050020172870B5044601D980
:100E5C00002070BDA0F10D03022B0BD9012824D862
:100E6C0000F09EF80021007CFFF740FA80F00100B2
:100E7C00C0B2EEE7124E3178BFF35B8F11F0010573
:100E8C000DD13046FFF705F948B129460D48FFF75B
:100E9C0043FB3046FFF702F90B4800F0A9F8094B69
:100EAC001878FFF73DFA0028D2D1123C012C05D856
:100EBC00FFF798FE007CFFF7E1F9D7E70120C8E7C0
:100ECC001005002014050020450E0A08172838B517
:100EDC0004460D460AD8FF2908D0FFF7B5FF28B104
:100EEC0029462046BDE83840FFF758B938BD38B51B
:100EFC0004460D46FFF75AF9FF2810D0062804D8EF
:100F0C004D2323FA00F0C30709D42046FFF79CFFBA
:100F1C0028B129462046BDE83840FFF74FB938BD07
:100F2C0010B5044609289CBF0A34A4B22046FFF72A
:100F3C008BFF50B103212046FFF728F9032804D179
:100F4C002046BDE81040FFF741B9002010BD00005D
:100F5C00002307B51A46194600930348FFF71EFDF8
:100F6C0003B05DF804FB00BF2405002070470000AF
:100F7C00002370B5202543801423084E04460380BB
:100F8C00314685600561284600F030F831466060D6
:100F9C00284600F02BF8E060204670BDC8120A0805
:100FAC0030B50E4D87B02978BFF35B8F11F001047B
:100FBC0011D12846FFF76DF868B101A8FFF7D8FFEB
:100FCC00214601AA0648FFF75DFE2846FFF766F8A2
:100FDC00044800F00DF8024807B030BD3C05002075
:100FEC0040050020790F0A08FFF751B8FFF74DB8FC
:100FFC00002301461A46184600F04CB80A449142A8
:10100C0000F1FF3300D1704710B511F8014B91423C
:10101C0003F8014FF9D110BD03460244934200D1AD
:10102C00704703F8011BF9E738B50D4B04461D68F2
:10103C00AB6B7BB91820FFF74FFA0A4A0A4BA8632F
:10104C00C0E90023094B012283600B238381002319
:10105C00C0E904230022AB6B1C615A6138BD00BF90
:10106C00040000200E33CDAB34126DE6ECDE05002F
:10107C0010F8012B11F8013B012A28BF9A42F7D036
:10108C00D01A7047034613F8012B002AFBD1181A0B
:10109C00013870472DE9F843DFF8BC800646D8F8D4
:1010AC0000001F460D46914600F058F8264B1C6870
:1010BC0034B9264C1C60264B13B11B68C4F888301D
:1010CC0063681F2B07DDD8F8000000F049F84FF0DB
:1010DC00FF30BDE8F8835EB3D4F8880088B91D4BA7
:1010EC0023B9D8F8000000F03AF8F0E74FF4847018
:1010FC00FFF7F2F90028F4D00023C0E94033C4F81C
:10110C00880001226368022E40F8239002FA03F251
:10111C0000EB8301D0F8003143EA0203C0F8003140
:10112C00C1F8807002BFD0F804311A43C0F8042112
:10113C006368D8F800005A1C0233626044F82350EC
:10114C0000F00EF80020C4E7E00500205405002054
:10115C0000000000E5040A08680000207047704792
:10116C00704700001D000A085D000A0885000A0887
:10117C0089000A08000000005761746572004D6F09
:10118C00697374757265006170700025592D256D39
:10119C002D25645425483A254D3A2553257A00616E
:1011AC00736374696D6500000000000000000000AE
:1011BC000B090A08FB080A08FD080A0800000000D1
:1011CC0000000000C7090A082D0A0A08050A0A08C7
:1011DC007B060A08F7090A08C9090A08D9090A0886
:1011EC00270A0A08E9090A08C1090A0800000000D0
:1011FC00000000004D0B0A08B70B0A08930B0A08F5
:10120C007B060A08630B0A087F0B0A08710B0A0895
:10121C008D0B0A084F0B0A08550B0A08000000003A
:10122C0000000000390C0A08830C0A085B0C0A0841
:10123C003B0C0A08630C0A086B0C0A08730C0A08AE
:10124C007B0C0A0800000000000000004B0D0A088F
:10125C00410D0A08370D0A08B50C0A0807070A08D9
:10126C002B0D0A08A90D0A08B10D0A081F0D0A0852
:10127C00170D0A080D0D0A08030D0A08BF0C0A0801
:10128C000000000000000000690D0A08730D0A0838
:10129C007D0D0A08870D0A08910D0A089D0D0A0894
:1012AC00A90D0A08B10D0A08B90D0A08C50D0A08DE
:1012BC00CD0D0A08D70D0A08E10D0A080000000040
:1012CC0045050A0815070A0825070A0841070A08F0
:1012DC00550D0A08310E0A085D0F0A0800000000BF
:0412EC0000000000FE
:0412F00000000000FA
:1012F400AB110A08080000200000000000000000F4
:1013040000000000000000000000000000000000D9
:1013140000000000000000000000000000000000C9
:1013240000000000000000000000000000000000B9
:1013340000000000000000000000000000000000A9
:101344000000000000000000000000000000000099
:0C1354000000000000000000E505002083
:10136000FFFFFFFF00000102030405060708090A4A
:101370000B0C0D0E0F101112131415161718191A45
:081380001B1C1D1E1F2028008C
:04138800785634124D
:04000005080A001CC9
:00000001FF
